{
	"data": {
		"bytecode": {
			"linkReferences": {},
			"object": "608060405234801561000f575f80fd5b5061125f8061001d5f395ff3fe608060405234801561000f575f80fd5b5060043610610029575f3560e01c8063f6af03111461002d575b5f80fd5b6100476004803603810190610042919061106c565b61005d565b60405161005491906110b2565b60405180910390f35b5f805f67ffffffffffffffff81111561007957610078610e0f565b5b6040519080825280602002602001820160405280156100a75781602001602082028036833780820191505090505b5090505f6100b582856100ce565b036100c45760019150506100c9565b5f9150505b919050565b5f807f30644e72e131a029b85045b68181585d2833e84879b9709143e1f593f000000190505f6100fc610253565b90508060800151516001865161011291906110f8565b1461011b575f80fd5b5f60405180604001604052805f81526020015f81525090505f5b86518110156101c957838782815181106101525761015161112b565b5b602002602001015110610163575f80fd5b6101ba826101b5856080015160018561017c91906110f8565b8151811061018d5761018c61112b565b5b60200260200101518a85815181106101a8576101a761112b565b5b60200260200101516105dc565b610679565b91508080600101915050610135565b506101f28183608001515f815181106101e5576101e461112b565b5b6020026020010151610679565b9050610236855f015186602001516102098461073b565b856040015161021b8a6040015161073b565b876060015161022c895f015161073b565b89602001516107d9565b610246576001935050505061024d565b5f93505050505b92915050565b61025b610ce1565b60405180604001604052807f08b54ed12e540c8eace8e1cd5d3abc51a91ca1ee1823ab00eb74a1459ffb88a881526020017f1f811f1bc0dc7bd62455ea0e83411b208ea5976e8e899e0dad935645ba031316815250815f0181905250604051806040016040528060405180604001604052807f153edfdf21575e0c7d2ef691185fc4d169d84fc78e9eb36352236c0b32613a0181526020017f095d4d6b9403cb382b04e7b5649b2488cd836df7d0ac71b119e58f5a3f52ab18815250815260200160405180604001604052807ea8604c4a24047b5dd02576ea7508e7b98a6ec16d116441f9f8159a0089d5f981526020017f05c84d9faa8eda0376b1da2e01a8341869f7ed27d54c88a7eb4a23d83ae2c65f8152508152508160200181905250604051806040016040528060405180604001604052807f0f1a30a68b4f3b2f0cd16bd635914ceec9568e36e3fa272a56b5e9bfc1fb5d5f81526020017f210738974b00767a9b006c76412ec71da6e63c877c296046505e8c9a2a851cb6815250815260200160405180604001604052807f21280490bbe5bda83afa24e987189bddd4bb7e67a39162a286dcff90379ddcaa81526020017f0ad9b6b5f48d0bcd8c1fffe449503d6806d7a0e48e670d107fc16ae98969ef908152508152508160400181905250604051806040016040528060405180604001604052807f2c8da6d24d8dfd3b314ab934e3ec160909ad71da1c2c5c4df5e505cb25ce40c581526020017f21a65b65bdb64507fc7cf69e50e08e0ed818aa20f1e6fb710cf55695fb751167815250815260200160405180604001604052807f10b0feb5ea89f86cafff02c8067200a3df05982c447864792965d7b56a3df5c481526020017f1e4957c5d9d4fb5258153c3ee9a5aea233f03b860bfb914c3cb1746ed76d290f8152508152508160600181905250600167ffffffffffffffff8111156105205761051f610e0f565b5b60405190808252806020026020018201604052801561055957816020015b610546610d28565b81526020019060019003908161053e5790505b50816080018190525060405180604001604052807f065dd8c220389c003bad552950e954f8b82465f4aab65db68fc1b7f6213c4f6e81526020017f2cee4a169622efddcab7222cff4a5f4c7c275c9f600e35e0631f80bebe7c68aa81525081608001515f815181106105ce576105cd61112b565b5b602002602001018190525090565b6105e4610d28565b6105ec610d40565b835f0151815f600381106106035761060261112b565b5b6020020181815250508360200151816001600381106106255761062461112b565b5b60200201818152505082816002600381106106435761064261112b565b5b6020020181815250505f60608360808460076107d05a03fa9050805f810361066757fe5b5080610671575f80fd5b505092915050565b610681610d28565b610689610d62565b835f0151815f600481106106a05761069f61112b565b5b6020020181815250508360200151816001600481106106c2576106c161112b565b5b602002018181525050825f0151816002600481106106e3576106e261112b565b5b6020020181815250508260200151816003600481106107055761070461112b565b5b6020020181815250505f60608360c08460066107d05a03fa9050805f810361072957fe5b5080610733575f80fd5b505092915050565b610743610d28565b5f7f30644e72e131a029b85045b68181585d97816a916871ca8d3c208c16d87cfd4790505f835f015114801561077c57505f8360200151145b1561079e5760405180604001604052805f81526020015f8152509150506107d4565b6040518060400160405280845f015181526020018285602001516107c29190611185565b836107cd91906111b5565b8152509150505b919050565b5f80600467ffffffffffffffff8111156107f6576107f5610e0f565b5b60405190808252806020026020018201604052801561082f57816020015b61081c610d28565b8152602001906001900390816108145790505b5090505f600467ffffffffffffffff81111561084e5761084d610e0f565b5b60405190808252806020026020018201604052801561088757816020015b610874610d84565b81526020019060019003908161086c5790505b5090508a825f8151811061089e5761089d61112b565b5b602002602001018190525088826001815181106108be576108bd61112b565b5b602002602001018190525086826002815181106108de576108dd61112b565b5b602002602001018190525084826003815181106108fe576108fd61112b565b5b602002602001018190525089815f8151811061091d5761091c61112b565b5b6020026020010181905250878160018151811061093d5761093c61112b565b5b6020026020010181905250858160028151811061095d5761095c61112b565b5b6020026020010181905250838160038151811061097d5761097c61112b565b5b602002602001018190525061099282826109a2565b9250505098975050505050505050565b5f81518351146109b0575f80fd5b5f835190505f6006826109c391906111e8565b90505f8167ffffffffffffffff8111156109e0576109df610e0f565b5b604051908082528060200260200182016040528015610a0e5781602001602082028036833780820191505090505b5090505f5b83811015610c8657868181518110610a2e57610a2d61112b565b5b60200260200101515f0151825f600684610a4891906111e8565b610a5291906110f8565b81518110610a6357610a6261112b565b5b602002602001018181525050868181518110610a8257610a8161112b565b5b602002602001015160200151826001600684610a9e91906111e8565b610aa891906110f8565b81518110610ab957610ab861112b565b5b602002602001018181525050858181518110610ad857610ad761112b565b5b60200260200101515f0151600160028110610af657610af561112b565b5b6020020151826002600684610b0b91906111e8565b610b1591906110f8565b81518110610b2657610b2561112b565b5b602002602001018181525050858181518110610b4557610b4461112b565b5b60200260200101515f01515f60028110610b6257610b6161112b565b5b6020020151826003600684610b7791906111e8565b610b8191906110f8565b81518110610b9257610b9161112b565b5b602002602001018181525050858181518110610bb157610bb061112b565b5b602002602001015160200151600160028110610bd057610bcf61112b565b5b6020020151826004600684610be591906111e8565b610bef91906110f8565b81518110610c0057610bff61112b565b5b602002602001018181525050858181518110610c1f57610c1e61112b565b5b6020026020010151602001515f60028110610c3d57610c3c61112b565b5b6020020151826005600684610c5291906111e8565b610c5c91906110f8565b81518110610c6d57610c6c61112b565b5b6020026020010181815250508080600101915050610a13565b50610c8f610daa565b5f602082602086026020860160086107d05a03fa9050805f8103610caf57fe5b5080610cb9575f80fd5b5f825f60018110610ccd57610ccc61112b565b5b602002015114159550505050505092915050565b6040518060a00160405280610cf4610d28565b8152602001610d01610d84565b8152602001610d0e610d84565b8152602001610d1b610d84565b8152602001606081525090565b60405180604001604052805f81526020015f81525090565b6040518060600160405280600390602082028036833780820191505090505090565b6040518060800160405280600490602082028036833780820191505090505090565b6040518060400160405280610d97610dcc565b8152602001610da4610dcc565b81525090565b6040518060200160405280600190602082028036833780820191505090505090565b6040518060400160405280600290602082028036833780820191505090505090565b5f604051905090565b5f80fd5b5f80fd5b5f601f19601f8301169050919050565b7f4e487b71000000000000000000000000000000000000000000000000000000005f52604160045260245ffd5b610e4582610dff565b810181811067ffffffffffffffff82111715610e6457610e63610e0f565b5b80604052505050565b5f610e76610dee565b9050610e828282610e3c565b919050565b5f819050919050565b610e9981610e87565b8114610ea3575f80fd5b50565b5f81359050610eb481610e90565b92915050565b5f60408284031215610ecf57610ece610dfb565b5b610ed96040610e6d565b90505f610ee884828501610ea6565b5f830152506020610efb84828501610ea6565b60208301525092915050565b5f80fd5b5f67ffffffffffffffff821115610f2557610f24610e0f565b5b602082029050919050565b5f80fd5b5f610f46610f4184610f0b565b610e6d565b90508060208402830185811115610f6057610f5f610f30565b5b835b81811015610f895780610f758882610ea6565b845260208401935050602081019050610f62565b5050509392505050565b5f82601f830112610fa757610fa6610f07565b5b6002610fb4848285610f34565b91505092915050565b5f60808284031215610fd257610fd1610dfb565b5b610fdc6040610e6d565b90505f610feb84828501610f93565b5f830152506040610ffe84828501610f93565b60208301525092915050565b5f61010082840312156110205761101f610dfb565b5b61102a6060610e6d565b90505f61103984828501610eba565b5f83015250604061104c84828501610fbd565b60208301525060c061106084828501610eba565b60408301525092915050565b5f610100828403121561108257611081610df7565b5b5f61108f8482850161100a565b91505092915050565b5f8115159050919050565b6110ac81611098565b82525050565b5f6020820190506110c55f8301846110a3565b92915050565b7f4e487b71000000000000000000000000000000000000000000000000000000005f52601160045260245ffd5b5f61110282610e87565b915061110d83610e87565b9250828201905080821115611125576111246110cb565b5b92915050565b7f4e487b71000000000000000000000000000000000000000000000000000000005f52603260045260245ffd5b7f4e487b71000000000000000000000000000000000000000000000000000000005f52601260045260245ffd5b5f61118f82610e87565b915061119a83610e87565b9250826111aa576111a9611158565b5b828206905092915050565b5f6111bf82610e87565b91506111ca83610e87565b92508282039050818111156111e2576111e16110cb565b5b92915050565b5f6111f282610e87565b91506111fd83610e87565b925082820261120b81610e87565b91508282048414831517611222576112216110cb565b5b509291505056fea2646970667358221220b3bf960b63a3ced8ea13d232a2e09f09d660e39319bfbea8d66c1e5b0dac6f6064736f6c63430008180033",
			"opcodes": "PUSH1 0x80 PUSH1 0x40 MSTORE CALLVALUE DUP1 ISZERO PUSH2 0xF JUMPI PUSH0 DUP1 REVERT JUMPDEST POP PUSH2 0x125F DUP1 PUSH2 0x1D PUSH0 CODECOPY PUSH0 RETURN INVALID PUSH1 0x80 PUSH1 0x40 MSTORE CALLVALUE DUP1 ISZERO PUSH2 0xF JUMPI PUSH0 DUP1 REVERT JUMPDEST POP PUSH1 0x4 CALLDATASIZE LT PUSH2 0x29 JUMPI PUSH0 CALLDATALOAD PUSH1 0xE0 SHR DUP1 PUSH4 0xF6AF0311 EQ PUSH2 0x2D JUMPI JUMPDEST PUSH0 DUP1 REVERT JUMPDEST PUSH2 0x47 PUSH1 0x4 DUP1 CALLDATASIZE SUB DUP2 ADD SWAP1 PUSH2 0x42 SWAP2 SWAP1 PUSH2 0x106C JUMP JUMPDEST PUSH2 0x5D JUMP JUMPDEST PUSH1 0x40 MLOAD PUSH2 0x54 SWAP2 SWAP1 PUSH2 0x10B2 JUMP JUMPDEST PUSH1 0x40 MLOAD DUP1 SWAP2 SUB SWAP1 RETURN JUMPDEST PUSH0 DUP1 PUSH0 PUSH8 0xFFFFFFFFFFFFFFFF DUP2 GT ISZERO PUSH2 0x79 JUMPI PUSH2 0x78 PUSH2 0xE0F JUMP JUMPDEST JUMPDEST PUSH1 0x40 MLOAD SWAP1 DUP1 DUP3 MSTORE DUP1 PUSH1 0x20 MUL PUSH1 0x20 ADD DUP3 ADD PUSH1 0x40 MSTORE DUP1 ISZERO PUSH2 0xA7 JUMPI DUP2 PUSH1 0x20 ADD PUSH1 0x20 DUP3 MUL DUP1 CALLDATASIZE DUP4 CALLDATACOPY DUP1 DUP3 ADD SWAP2 POP POP SWAP1 POP JUMPDEST POP SWAP1 POP PUSH0 PUSH2 0xB5 DUP3 DUP6 PUSH2 0xCE JUMP JUMPDEST SUB PUSH2 0xC4 JUMPI PUSH1 0x1 SWAP2 POP POP PUSH2 0xC9 JUMP JUMPDEST PUSH0 SWAP2 POP POP JUMPDEST SWAP2 SWAP1 POP JUMP JUMPDEST PUSH0 DUP1 PUSH32 0x30644E72E131A029B85045B68181585D2833E84879B9709143E1F593F0000001 SWAP1 POP PUSH0 PUSH2 0xFC PUSH2 0x253 JUMP JUMPDEST SWAP1 POP DUP1 PUSH1 0x80 ADD MLOAD MLOAD PUSH1 0x1 DUP7 MLOAD PUSH2 0x112 SWAP2 SWAP1 PUSH2 0x10F8 JUMP JUMPDEST EQ PUSH2 0x11B JUMPI PUSH0 DUP1 REVERT JUMPDEST PUSH0 PUSH1 0x40 MLOAD DUP1 PUSH1 0x40 ADD PUSH1 0x40 MSTORE DUP1 PUSH0 DUP2 MSTORE PUSH1 0x20 ADD PUSH0 DUP2 MSTORE POP SWAP1 POP PUSH0 JUMPDEST DUP7 MLOAD DUP2 LT ISZERO PUSH2 0x1C9 JUMPI DUP4 DUP8 DUP3 DUP2 MLOAD DUP2 LT PUSH2 0x152 JUMPI PUSH2 0x151 PUSH2 0x112B JUMP JUMPDEST JUMPDEST PUSH1 0x20 MUL PUSH1 0x20 ADD ADD MLOAD LT PUSH2 0x163 JUMPI PUSH0 DUP1 REVERT JUMPDEST PUSH2 0x1BA DUP3 PUSH2 0x1B5 DUP6 PUSH1 0x80 ADD MLOAD PUSH1 0x1 DUP6 PUSH2 0x17C SWAP2 SWAP1 PUSH2 0x10F8 JUMP JUMPDEST DUP2 MLOAD DUP2 LT PUSH2 0x18D JUMPI PUSH2 0x18C PUSH2 0x112B JUMP JUMPDEST JUMPDEST PUSH1 0x20 MUL PUSH1 0x20 ADD ADD MLOAD DUP11 DUP6 DUP2 MLOAD DUP2 LT PUSH2 0x1A8 JUMPI PUSH2 0x1A7 PUSH2 0x112B JUMP JUMPDEST JUMPDEST PUSH1 0x20 MUL PUSH1 0x20 ADD ADD MLOAD PUSH2 0x5DC JUMP JUMPDEST PUSH2 0x679 JUMP JUMPDEST SWAP2 POP DUP1 DUP1 PUSH1 0x1 ADD SWAP2 POP POP PUSH2 0x135 JUMP JUMPDEST POP PUSH2 0x1F2 DUP2 DUP4 PUSH1 0x80 ADD MLOAD PUSH0 DUP2 MLOAD DUP2 LT PUSH2 0x1E5 JUMPI PUSH2 0x1E4 PUSH2 0x112B JUMP JUMPDEST JUMPDEST PUSH1 0x20 MUL PUSH1 0x20 ADD ADD MLOAD PUSH2 0x679 JUMP JUMPDEST SWAP1 POP PUSH2 0x236 DUP6 PUSH0 ADD MLOAD DUP7 PUSH1 0x20 ADD MLOAD PUSH2 0x209 DUP5 PUSH2 0x73B JUMP JUMPDEST DUP6 PUSH1 0x40 ADD MLOAD PUSH2 0x21B DUP11 PUSH1 0x40 ADD MLOAD PUSH2 0x73B JUMP JUMPDEST DUP8 PUSH1 0x60 ADD MLOAD PUSH2 0x22C DUP10 PUSH0 ADD MLOAD PUSH2 0x73B JUMP JUMPDEST DUP10 PUSH1 0x20 ADD MLOAD PUSH2 0x7D9 JUMP JUMPDEST PUSH2 0x246 JUMPI PUSH1 0x1 SWAP4 POP POP POP POP PUSH2 0x24D JUMP JUMPDEST PUSH0 SWAP4 POP POP POP POP JUMPDEST SWAP3 SWAP2 POP POP JUMP JUMPDEST PUSH2 0x25B PUSH2 0xCE1 JUMP JUMPDEST PUSH1 0x40 MLOAD DUP1 PUSH1 0x40 ADD PUSH1 0x40 MSTORE DUP1 PUSH32 0x8B54ED12E540C8EACE8E1CD5D3ABC51A91CA1EE1823AB00EB74A1459FFB88A8 DUP2 MSTORE PUSH1 0x20 ADD PUSH32 0x1F811F1BC0DC7BD62455EA0E83411B208EA5976E8E899E0DAD935645BA031316 DUP2 MSTORE POP DUP2 PUSH0 ADD DUP2 SWAP1 MSTORE POP PUSH1 0x40 MLOAD DUP1 PUSH1 0x40 ADD PUSH1 0x40 MSTORE DUP1 PUSH1 0x40 MLOAD DUP1 PUSH1 0x40 ADD PUSH1 0x40 MSTORE DUP1 PUSH32 0x153EDFDF21575E0C7D2EF691185FC4D169D84FC78E9EB36352236C0B32613A01 DUP2 MSTORE PUSH1 0x20 ADD PUSH32 0x95D4D6B9403CB382B04E7B5649B2488CD836DF7D0AC71B119E58F5A3F52AB18 DUP2 MSTORE POP DUP2 MSTORE PUSH1 0x20 ADD PUSH1 0x40 MLOAD DUP1 PUSH1 0x40 ADD PUSH1 0x40 MSTORE DUP1 PUSH31 0xA8604C4A24047B5DD02576EA7508E7B98A6EC16D116441F9F8159A0089D5F9 DUP2 MSTORE PUSH1 0x20 ADD PUSH32 0x5C84D9FAA8EDA0376B1DA2E01A8341869F7ED27D54C88A7EB4A23D83AE2C65F DUP2 MSTORE POP DUP2 MSTORE POP DUP2 PUSH1 0x20 ADD DUP2 SWAP1 MSTORE POP PUSH1 0x40 MLOAD DUP1 PUSH1 0x40 ADD PUSH1 0x40 MSTORE DUP1 PUSH1 0x40 MLOAD DUP1 PUSH1 0x40 ADD PUSH1 0x40 MSTORE DUP1 PUSH32 0xF1A30A68B4F3B2F0CD16BD635914CEEC9568E36E3FA272A56B5E9BFC1FB5D5F DUP2 MSTORE PUSH1 0x20 ADD PUSH32 0x210738974B00767A9B006C76412EC71DA6E63C877C296046505E8C9A2A851CB6 DUP2 MSTORE POP DUP2 MSTORE PUSH1 0x20 ADD PUSH1 0x40 MLOAD DUP1 PUSH1 0x40 ADD PUSH1 0x40 MSTORE DUP1 PUSH32 0x21280490BBE5BDA83AFA24E987189BDDD4BB7E67A39162A286DCFF90379DDCAA DUP2 MSTORE PUSH1 0x20 ADD PUSH32 0xAD9B6B5F48D0BCD8C1FFFE449503D6806D7A0E48E670D107FC16AE98969EF90 DUP2 MSTORE POP DUP2 MSTORE POP DUP2 PUSH1 0x40 ADD DUP2 SWAP1 MSTORE POP PUSH1 0x40 MLOAD DUP1 PUSH1 0x40 ADD PUSH1 0x40 MSTORE DUP1 PUSH1 0x40 MLOAD DUP1 PUSH1 0x40 ADD PUSH1 0x40 MSTORE DUP1 PUSH32 0x2C8DA6D24D8DFD3B314AB934E3EC160909AD71DA1C2C5C4DF5E505CB25CE40C5 DUP2 MSTORE PUSH1 0x20 ADD PUSH32 0x21A65B65BDB64507FC7CF69E50E08E0ED818AA20F1E6FB710CF55695FB751167 DUP2 MSTORE POP DUP2 MSTORE PUSH1 0x20 ADD PUSH1 0x40 MLOAD DUP1 PUSH1 0x40 ADD PUSH1 0x40 MSTORE DUP1 PUSH32 0x10B0FEB5EA89F86CAFFF02C8067200A3DF05982C447864792965D7B56A3DF5C4 DUP2 MSTORE PUSH1 0x20 ADD PUSH32 0x1E4957C5D9D4FB5258153C3EE9A5AEA233F03B860BFB914C3CB1746ED76D290F DUP2 MSTORE POP DUP2 MSTORE POP DUP2 PUSH1 0x60 ADD DUP2 SWAP1 MSTORE POP PUSH1 0x1 PUSH8 0xFFFFFFFFFFFFFFFF DUP2 GT ISZERO PUSH2 0x520 JUMPI PUSH2 0x51F PUSH2 0xE0F JUMP JUMPDEST JUMPDEST PUSH1 0x40 MLOAD SWAP1 DUP1 DUP3 MSTORE DUP1 PUSH1 0x20 MUL PUSH1 0x20 ADD DUP3 ADD PUSH1 0x40 MSTORE DUP1 ISZERO PUSH2 0x559 JUMPI DUP2 PUSH1 0x20 ADD JUMPDEST PUSH2 0x546 PUSH2 0xD28 JUMP JUMPDEST DUP2 MSTORE PUSH1 0x20 ADD SWAP1 PUSH1 0x1 SWAP1 SUB SWAP1 DUP2 PUSH2 0x53E JUMPI SWAP1 POP JUMPDEST POP DUP2 PUSH1 0x80 ADD DUP2 SWAP1 MSTORE POP PUSH1 0x40 MLOAD DUP1 PUSH1 0x40 ADD PUSH1 0x40 MSTORE DUP1 PUSH32 0x65DD8C220389C003BAD552950E954F8B82465F4AAB65DB68FC1B7F6213C4F6E DUP2 MSTORE PUSH1 0x20 ADD PUSH32 0x2CEE4A169622EFDDCAB7222CFF4A5F4C7C275C9F600E35E0631F80BEBE7C68AA DUP2 MSTORE POP DUP2 PUSH1 0x80 ADD MLOAD PUSH0 DUP2 MLOAD DUP2 LT PUSH2 0x5CE JUMPI PUSH2 0x5CD PUSH2 0x112B JUMP JUMPDEST JUMPDEST PUSH1 0x20 MUL PUSH1 0x20 ADD ADD DUP2 SWAP1 MSTORE POP SWAP1 JUMP JUMPDEST PUSH2 0x5E4 PUSH2 0xD28 JUMP JUMPDEST PUSH2 0x5EC PUSH2 0xD40 JUMP JUMPDEST DUP4 PUSH0 ADD MLOAD DUP2 PUSH0 PUSH1 0x3 DUP2 LT PUSH2 0x603 JUMPI PUSH2 0x602 PUSH2 0x112B JUMP JUMPDEST JUMPDEST PUSH1 0x20 MUL ADD DUP2 DUP2 MSTORE POP POP DUP4 PUSH1 0x20 ADD MLOAD DUP2 PUSH1 0x1 PUSH1 0x3 DUP2 LT PUSH2 0x625 JUMPI PUSH2 0x624 PUSH2 0x112B JUMP JUMPDEST JUMPDEST PUSH1 0x20 MUL ADD DUP2 DUP2 MSTORE POP POP DUP3 DUP2 PUSH1 0x2 PUSH1 0x3 DUP2 LT PUSH2 0x643 JUMPI PUSH2 0x642 PUSH2 0x112B JUMP JUMPDEST JUMPDEST PUSH1 0x20 MUL ADD DUP2 DUP2 MSTORE POP POP PUSH0 PUSH1 0x60 DUP4 PUSH1 0x80 DUP5 PUSH1 0x7 PUSH2 0x7D0 GAS SUB STATICCALL SWAP1 POP DUP1 PUSH0 DUP2 SUB PUSH2 0x667 JUMPI INVALID JUMPDEST POP DUP1 PUSH2 0x671 JUMPI PUSH0 DUP1 REVERT JUMPDEST POP POP SWAP3 SWAP2 POP POP JUMP JUMPDEST PUSH2 0x681 PUSH2 0xD28 JUMP JUMPDEST PUSH2 0x689 PUSH2 0xD62 JUMP JUMPDEST DUP4 PUSH0 ADD MLOAD DUP2 PUSH0 PUSH1 0x4 DUP2 LT PUSH2 0x6A0 JUMPI PUSH2 0x69F PUSH2 0x112B JUMP JUMPDEST JUMPDEST PUSH1 0x20 MUL ADD DUP2 DUP2 MSTORE POP POP DUP4 PUSH1 0x20 ADD MLOAD DUP2 PUSH1 0x1 PUSH1 0x4 DUP2 LT PUSH2 0x6C2 JUMPI PUSH2 0x6C1 PUSH2 0x112B JUMP JUMPDEST JUMPDEST PUSH1 0x20 MUL ADD DUP2 DUP2 MSTORE POP POP DUP3 PUSH0 ADD MLOAD DUP2 PUSH1 0x2 PUSH1 0x4 DUP2 LT PUSH2 0x6E3 JUMPI PUSH2 0x6E2 PUSH2 0x112B JUMP JUMPDEST JUMPDEST PUSH1 0x20 MUL ADD DUP2 DUP2 MSTORE POP POP DUP3 PUSH1 0x20 ADD MLOAD DUP2 PUSH1 0x3 PUSH1 0x4 DUP2 LT PUSH2 0x705 JUMPI PUSH2 0x704 PUSH2 0x112B JUMP JUMPDEST JUMPDEST PUSH1 0x20 MUL ADD DUP2 DUP2 MSTORE POP POP PUSH0 PUSH1 0x60 DUP4 PUSH1 0xC0 DUP5 PUSH1 0x6 PUSH2 0x7D0 GAS SUB STATICCALL SWAP1 POP DUP1 PUSH0 DUP2 SUB PUSH2 0x729 JUMPI INVALID JUMPDEST POP DUP1 PUSH2 0x733 JUMPI PUSH0 DUP1 REVERT JUMPDEST POP POP SWAP3 SWAP2 POP POP JUMP JUMPDEST PUSH2 0x743 PUSH2 0xD28 JUMP JUMPDEST PUSH0 PUSH32 0x30644E72E131A029B85045B68181585D97816A916871CA8D3C208C16D87CFD47 SWAP1 POP PUSH0 DUP4 PUSH0 ADD MLOAD EQ DUP1 ISZERO PUSH2 0x77C JUMPI POP PUSH0 DUP4 PUSH1 0x20 ADD MLOAD EQ JUMPDEST ISZERO PUSH2 0x79E JUMPI PUSH1 0x40 MLOAD DUP1 PUSH1 0x40 ADD PUSH1 0x40 MSTORE DUP1 PUSH0 DUP2 MSTORE PUSH1 0x20 ADD PUSH0 DUP2 MSTORE POP SWAP2 POP POP PUSH2 0x7D4 JUMP JUMPDEST PUSH1 0x40 MLOAD DUP1 PUSH1 0x40 ADD PUSH1 0x40 MSTORE DUP1 DUP5 PUSH0 ADD MLOAD DUP2 MSTORE PUSH1 0x20 ADD DUP3 DUP6 PUSH1 0x20 ADD MLOAD PUSH2 0x7C2 SWAP2 SWAP1 PUSH2 0x1185 JUMP JUMPDEST DUP4 PUSH2 0x7CD SWAP2 SWAP1 PUSH2 0x11B5 JUMP JUMPDEST DUP2 MSTORE POP SWAP2 POP POP JUMPDEST SWAP2 SWAP1 POP JUMP JUMPDEST PUSH0 DUP1 PUSH1 0x4 PUSH8 0xFFFFFFFFFFFFFFFF DUP2 GT ISZERO PUSH2 0x7F6 JUMPI PUSH2 0x7F5 PUSH2 0xE0F JUMP JUMPDEST JUMPDEST PUSH1 0x40 MLOAD SWAP1 DUP1 DUP3 MSTORE DUP1 PUSH1 0x20 MUL PUSH1 0x20 ADD DUP3 ADD PUSH1 0x40 MSTORE DUP1 ISZERO PUSH2 0x82F JUMPI DUP2 PUSH1 0x20 ADD JUMPDEST PUSH2 0x81C PUSH2 0xD28 JUMP JUMPDEST DUP2 MSTORE PUSH1 0x20 ADD SWAP1 PUSH1 0x1 SWAP1 SUB SWAP1 DUP2 PUSH2 0x814 JUMPI SWAP1 POP JUMPDEST POP SWAP1 POP PUSH0 PUSH1 0x4 PUSH8 0xFFFFFFFFFFFFFFFF DUP2 GT ISZERO PUSH2 0x84E JUMPI PUSH2 0x84D PUSH2 0xE0F JUMP JUMPDEST JUMPDEST PUSH1 0x40 MLOAD SWAP1 DUP1 DUP3 MSTORE DUP1 PUSH1 0x20 MUL PUSH1 0x20 ADD DUP3 ADD PUSH1 0x40 MSTORE DUP1 ISZERO PUSH2 0x887 JUMPI DUP2 PUSH1 0x20 ADD JUMPDEST PUSH2 0x874 PUSH2 0xD84 JUMP JUMPDEST DUP2 MSTORE PUSH1 0x20 ADD SWAP1 PUSH1 0x1 SWAP1 SUB SWAP1 DUP2 PUSH2 0x86C JUMPI SWAP1 POP JUMPDEST POP SWAP1 POP DUP11 DUP3 PUSH0 DUP2 MLOAD DUP2 LT PUSH2 0x89E JUMPI PUSH2 0x89D PUSH2 0x112B JUMP JUMPDEST JUMPDEST PUSH1 0x20 MUL PUSH1 0x20 ADD ADD DUP2 SWAP1 MSTORE POP DUP9 DUP3 PUSH1 0x1 DUP2 MLOAD DUP2 LT PUSH2 0x8BE JUMPI PUSH2 0x8BD PUSH2 0x112B JUMP JUMPDEST JUMPDEST PUSH1 0x20 MUL PUSH1 0x20 ADD ADD DUP2 SWAP1 MSTORE POP DUP7 DUP3 PUSH1 0x2 DUP2 MLOAD DUP2 LT PUSH2 0x8DE JUMPI PUSH2 0x8DD PUSH2 0x112B JUMP JUMPDEST JUMPDEST PUSH1 0x20 MUL PUSH1 0x20 ADD ADD DUP2 SWAP1 MSTORE POP DUP5 DUP3 PUSH1 0x3 DUP2 MLOAD DUP2 LT PUSH2 0x8FE JUMPI PUSH2 0x8FD PUSH2 0x112B JUMP JUMPDEST JUMPDEST PUSH1 0x20 MUL PUSH1 0x20 ADD ADD DUP2 SWAP1 MSTORE POP DUP10 DUP2 PUSH0 DUP2 MLOAD DUP2 LT PUSH2 0x91D JUMPI PUSH2 0x91C PUSH2 0x112B JUMP JUMPDEST JUMPDEST PUSH1 0x20 MUL PUSH1 0x20 ADD ADD DUP2 SWAP1 MSTORE POP DUP8 DUP2 PUSH1 0x1 DUP2 MLOAD DUP2 LT PUSH2 0x93D JUMPI PUSH2 0x93C PUSH2 0x112B JUMP JUMPDEST JUMPDEST PUSH1 0x20 MUL PUSH1 0x20 ADD ADD DUP2 SWAP1 MSTORE POP DUP6 DUP2 PUSH1 0x2 DUP2 MLOAD DUP2 LT PUSH2 0x95D JUMPI PUSH2 0x95C PUSH2 0x112B JUMP JUMPDEST JUMPDEST PUSH1 0x20 MUL PUSH1 0x20 ADD ADD DUP2 SWAP1 MSTORE POP DUP4 DUP2 PUSH1 0x3 DUP2 MLOAD DUP2 LT PUSH2 0x97D JUMPI PUSH2 0x97C PUSH2 0x112B JUMP JUMPDEST JUMPDEST PUSH1 0x20 MUL PUSH1 0x20 ADD ADD DUP2 SWAP1 MSTORE POP PUSH2 0x992 DUP3 DUP3 PUSH2 0x9A2 JUMP JUMPDEST SWAP3 POP POP POP SWAP9 SWAP8 POP POP POP POP POP POP POP POP JUMP JUMPDEST PUSH0 DUP2 MLOAD DUP4 MLOAD EQ PUSH2 0x9B0 JUMPI PUSH0 DUP1 REVERT JUMPDEST PUSH0 DUP4 MLOAD SWAP1 POP PUSH0 PUSH1 0x6 DUP3 PUSH2 0x9C3 SWAP2 SWAP1 PUSH2 0x11E8 JUMP JUMPDEST SWAP1 POP PUSH0 DUP2 PUSH8 0xFFFFFFFFFFFFFFFF DUP2 GT ISZERO PUSH2 0x9E0 JUMPI PUSH2 0x9DF PUSH2 0xE0F JUMP JUMPDEST JUMPDEST PUSH1 0x40 MLOAD SWAP1 DUP1 DUP3 MSTORE DUP1 PUSH1 0x20 MUL PUSH1 0x20 ADD DUP3 ADD PUSH1 0x40 MSTORE DUP1 ISZERO PUSH2 0xA0E JUMPI DUP2 PUSH1 0x20 ADD PUSH1 0x20 DUP3 MUL DUP1 CALLDATASIZE DUP4 CALLDATACOPY DUP1 DUP3 ADD SWAP2 POP POP SWAP1 POP JUMPDEST POP SWAP1 POP PUSH0 JUMPDEST DUP4 DUP2 LT ISZERO PUSH2 0xC86 JUMPI DUP7 DUP2 DUP2 MLOAD DUP2 LT PUSH2 0xA2E JUMPI PUSH2 0xA2D PUSH2 0x112B JUMP JUMPDEST JUMPDEST PUSH1 0x20 MUL PUSH1 0x20 ADD ADD MLOAD PUSH0 ADD MLOAD DUP3 PUSH0 PUSH1 0x6 DUP5 PUSH2 0xA48 SWAP2 SWAP1 PUSH2 0x11E8 JUMP JUMPDEST PUSH2 0xA52 SWAP2 SWAP1 PUSH2 0x10F8 JUMP JUMPDEST DUP2 MLOAD DUP2 LT PUSH2 0xA63 JUMPI PUSH2 0xA62 PUSH2 0x112B JUMP JUMPDEST JUMPDEST PUSH1 0x20 MUL PUSH1 0x20 ADD ADD DUP2 DUP2 MSTORE POP POP DUP7 DUP2 DUP2 MLOAD DUP2 LT PUSH2 0xA82 JUMPI PUSH2 0xA81 PUSH2 0x112B JUMP JUMPDEST JUMPDEST PUSH1 0x20 MUL PUSH1 0x20 ADD ADD MLOAD PUSH1 0x20 ADD MLOAD DUP3 PUSH1 0x1 PUSH1 0x6 DUP5 PUSH2 0xA9E SWAP2 SWAP1 PUSH2 0x11E8 JUMP JUMPDEST PUSH2 0xAA8 SWAP2 SWAP1 PUSH2 0x10F8 JUMP JUMPDEST DUP2 MLOAD DUP2 LT PUSH2 0xAB9 JUMPI PUSH2 0xAB8 PUSH2 0x112B JUMP JUMPDEST JUMPDEST PUSH1 0x20 MUL PUSH1 0x20 ADD ADD DUP2 DUP2 MSTORE POP POP DUP6 DUP2 DUP2 MLOAD DUP2 LT PUSH2 0xAD8 JUMPI PUSH2 0xAD7 PUSH2 0x112B JUMP JUMPDEST JUMPDEST PUSH1 0x20 MUL PUSH1 0x20 ADD ADD MLOAD PUSH0 ADD MLOAD PUSH1 0x1 PUSH1 0x2 DUP2 LT PUSH2 0xAF6 JUMPI PUSH2 0xAF5 PUSH2 0x112B JUMP JUMPDEST JUMPDEST PUSH1 0x20 MUL ADD MLOAD DUP3 PUSH1 0x2 PUSH1 0x6 DUP5 PUSH2 0xB0B SWAP2 SWAP1 PUSH2 0x11E8 JUMP JUMPDEST PUSH2 0xB15 SWAP2 SWAP1 PUSH2 0x10F8 JUMP JUMPDEST DUP2 MLOAD DUP2 LT PUSH2 0xB26 JUMPI PUSH2 0xB25 PUSH2 0x112B JUMP JUMPDEST JUMPDEST PUSH1 0x20 MUL PUSH1 0x20 ADD ADD DUP2 DUP2 MSTORE POP POP DUP6 DUP2 DUP2 MLOAD DUP2 LT PUSH2 0xB45 JUMPI PUSH2 0xB44 PUSH2 0x112B JUMP JUMPDEST JUMPDEST PUSH1 0x20 MUL PUSH1 0x20 ADD ADD MLOAD PUSH0 ADD MLOAD PUSH0 PUSH1 0x2 DUP2 LT PUSH2 0xB62 JUMPI PUSH2 0xB61 PUSH2 0x112B JUMP JUMPDEST JUMPDEST PUSH1 0x20 MUL ADD MLOAD DUP3 PUSH1 0x3 PUSH1 0x6 DUP5 PUSH2 0xB77 SWAP2 SWAP1 PUSH2 0x11E8 JUMP JUMPDEST PUSH2 0xB81 SWAP2 SWAP1 PUSH2 0x10F8 JUMP JUMPDEST DUP2 MLOAD DUP2 LT PUSH2 0xB92 JUMPI PUSH2 0xB91 PUSH2 0x112B JUMP JUMPDEST JUMPDEST PUSH1 0x20 MUL PUSH1 0x20 ADD ADD DUP2 DUP2 MSTORE POP POP DUP6 DUP2 DUP2 MLOAD DUP2 LT PUSH2 0xBB1 JUMPI PUSH2 0xBB0 PUSH2 0x112B JUMP JUMPDEST JUMPDEST PUSH1 0x20 MUL PUSH1 0x20 ADD ADD MLOAD PUSH1 0x20 ADD MLOAD PUSH1 0x1 PUSH1 0x2 DUP2 LT PUSH2 0xBD0 JUMPI PUSH2 0xBCF PUSH2 0x112B JUMP JUMPDEST JUMPDEST PUSH1 0x20 MUL ADD MLOAD DUP3 PUSH1 0x4 PUSH1 0x6 DUP5 PUSH2 0xBE5 SWAP2 SWAP1 PUSH2 0x11E8 JUMP JUMPDEST PUSH2 0xBEF SWAP2 SWAP1 PUSH2 0x10F8 JUMP JUMPDEST DUP2 MLOAD DUP2 LT PUSH2 0xC00 JUMPI PUSH2 0xBFF PUSH2 0x112B JUMP JUMPDEST JUMPDEST PUSH1 0x20 MUL PUSH1 0x20 ADD ADD DUP2 DUP2 MSTORE POP POP DUP6 DUP2 DUP2 MLOAD DUP2 LT PUSH2 0xC1F JUMPI PUSH2 0xC1E PUSH2 0x112B JUMP JUMPDEST JUMPDEST PUSH1 0x20 MUL PUSH1 0x20 ADD ADD MLOAD PUSH1 0x20 ADD MLOAD PUSH0 PUSH1 0x2 DUP2 LT PUSH2 0xC3D JUMPI PUSH2 0xC3C PUSH2 0x112B JUMP JUMPDEST JUMPDEST PUSH1 0x20 MUL ADD MLOAD DUP3 PUSH1 0x5 PUSH1 0x6 DUP5 PUSH2 0xC52 SWAP2 SWAP1 PUSH2 0x11E8 JUMP JUMPDEST PUSH2 0xC5C SWAP2 SWAP1 PUSH2 0x10F8 JUMP JUMPDEST DUP2 MLOAD DUP2 LT PUSH2 0xC6D JUMPI PUSH2 0xC6C PUSH2 0x112B JUMP JUMPDEST JUMPDEST PUSH1 0x20 MUL PUSH1 0x20 ADD ADD DUP2 DUP2 MSTORE POP POP DUP1 DUP1 PUSH1 0x1 ADD SWAP2 POP POP PUSH2 0xA13 JUMP JUMPDEST POP PUSH2 0xC8F PUSH2 0xDAA JUMP JUMPDEST PUSH0 PUSH1 0x20 DUP3 PUSH1 0x20 DUP7 MUL PUSH1 0x20 DUP7 ADD PUSH1 0x8 PUSH2 0x7D0 GAS SUB STATICCALL SWAP1 POP DUP1 PUSH0 DUP2 SUB PUSH2 0xCAF JUMPI INVALID JUMPDEST POP DUP1 PUSH2 0xCB9 JUMPI PUSH0 DUP1 REVERT JUMPDEST PUSH0 DUP3 PUSH0 PUSH1 0x1 DUP2 LT PUSH2 0xCCD JUMPI PUSH2 0xCCC PUSH2 0x112B JUMP JUMPDEST JUMPDEST PUSH1 0x20 MUL ADD MLOAD EQ ISZERO SWAP6 POP POP POP POP POP POP SWAP3 SWAP2 POP POP JUMP JUMPDEST PUSH1 0x40 MLOAD DUP1 PUSH1 0xA0 ADD PUSH1 0x40 MSTORE DUP1 PUSH2 0xCF4 PUSH2 0xD28 JUMP JUMPDEST DUP2 MSTORE PUSH1 0x20 ADD PUSH2 0xD01 PUSH2 0xD84 JUMP JUMPDEST DUP2 MSTORE PUSH1 0x20 ADD PUSH2 0xD0E PUSH2 0xD84 JUMP JUMPDEST DUP2 MSTORE PUSH1 0x20 ADD PUSH2 0xD1B PUSH2 0xD84 JUMP JUMPDEST DUP2 MSTORE PUSH1 0x20 ADD PUSH1 0x60 DUP2 MSTORE POP SWAP1 JUMP JUMPDEST PUSH1 0x40 MLOAD DUP1 PUSH1 0x40 ADD PUSH1 0x40 MSTORE DUP1 PUSH0 DUP2 MSTORE PUSH1 0x20 ADD PUSH0 DUP2 MSTORE POP SWAP1 JUMP JUMPDEST PUSH1 0x40 MLOAD DUP1 PUSH1 0x60 ADD PUSH1 0x40 MSTORE DUP1 PUSH1 0x3 SWAP1 PUSH1 0x20 DUP3 MUL DUP1 CALLDATASIZE DUP4 CALLDATACOPY DUP1 DUP3 ADD SWAP2 POP POP SWAP1 POP POP SWAP1 JUMP JUMPDEST PUSH1 0x40 MLOAD DUP1 PUSH1 0x80 ADD PUSH1 0x40 MSTORE DUP1 PUSH1 0x4 SWAP1 PUSH1 0x20 DUP3 MUL DUP1 CALLDATASIZE DUP4 CALLDATACOPY DUP1 DUP3 ADD SWAP2 POP POP SWAP1 POP POP SWAP1 JUMP JUMPDEST PUSH1 0x40 MLOAD DUP1 PUSH1 0x40 ADD PUSH1 0x40 MSTORE DUP1 PUSH2 0xD97 PUSH2 0xDCC JUMP JUMPDEST DUP2 MSTORE PUSH1 0x20 ADD PUSH2 0xDA4 PUSH2 0xDCC JUMP JUMPDEST DUP2 MSTORE POP SWAP1 JUMP JUMPDEST PUSH1 0x40 MLOAD DUP1 PUSH1 0x20 ADD PUSH1 0x40 MSTORE DUP1 PUSH1 0x1 SWAP1 PUSH1 0x20 DUP3 MUL DUP1 CALLDATASIZE DUP4 CALLDATACOPY DUP1 DUP3 ADD SWAP2 POP POP SWAP1 POP POP SWAP1 JUMP JUMPDEST PUSH1 0x40 MLOAD DUP1 PUSH1 0x40 ADD PUSH1 0x40 MSTORE DUP1 PUSH1 0x2 SWAP1 PUSH1 0x20 DUP3 MUL DUP1 CALLDATASIZE DUP4 CALLDATACOPY DUP1 DUP3 ADD SWAP2 POP POP SWAP1 POP POP SWAP1 JUMP JUMPDEST PUSH0 PUSH1 0x40 MLOAD SWAP1 POP SWAP1 JUMP JUMPDEST PUSH0 DUP1 REVERT JUMPDEST PUSH0 DUP1 REVERT JUMPDEST PUSH0 PUSH1 0x1F NOT PUSH1 0x1F DUP4 ADD AND SWAP1 POP SWAP2 SWAP1 POP JUMP JUMPDEST PUSH32 0x4E487B7100000000000000000000000000000000000000000000000000000000 PUSH0 MSTORE PUSH1 0x41 PUSH1 0x4 MSTORE PUSH1 0x24 PUSH0 REVERT JUMPDEST PUSH2 0xE45 DUP3 PUSH2 0xDFF JUMP JUMPDEST DUP2 ADD DUP2 DUP2 LT PUSH8 0xFFFFFFFFFFFFFFFF DUP3 GT OR ISZERO PUSH2 0xE64 JUMPI PUSH2 0xE63 PUSH2 0xE0F JUMP JUMPDEST JUMPDEST DUP1 PUSH1 0x40 MSTORE POP POP POP JUMP JUMPDEST PUSH0 PUSH2 0xE76 PUSH2 0xDEE JUMP JUMPDEST SWAP1 POP PUSH2 0xE82 DUP3 DUP3 PUSH2 0xE3C JUMP JUMPDEST SWAP2 SWAP1 POP JUMP JUMPDEST PUSH0 DUP2 SWAP1 POP SWAP2 SWAP1 POP JUMP JUMPDEST PUSH2 0xE99 DUP2 PUSH2 0xE87 JUMP JUMPDEST DUP2 EQ PUSH2 0xEA3 JUMPI PUSH0 DUP1 REVERT JUMPDEST POP JUMP JUMPDEST PUSH0 DUP2 CALLDATALOAD SWAP1 POP PUSH2 0xEB4 DUP2 PUSH2 0xE90 JUMP JUMPDEST SWAP3 SWAP2 POP POP JUMP JUMPDEST PUSH0 PUSH1 0x40 DUP3 DUP5 SUB SLT ISZERO PUSH2 0xECF JUMPI PUSH2 0xECE PUSH2 0xDFB JUMP JUMPDEST JUMPDEST PUSH2 0xED9 PUSH1 0x40 PUSH2 0xE6D JUMP JUMPDEST SWAP1 POP PUSH0 PUSH2 0xEE8 DUP5 DUP3 DUP6 ADD PUSH2 0xEA6 JUMP JUMPDEST PUSH0 DUP4 ADD MSTORE POP PUSH1 0x20 PUSH2 0xEFB DUP5 DUP3 DUP6 ADD PUSH2 0xEA6 JUMP JUMPDEST PUSH1 0x20 DUP4 ADD MSTORE POP SWAP3 SWAP2 POP POP JUMP JUMPDEST PUSH0 DUP1 REVERT JUMPDEST PUSH0 PUSH8 0xFFFFFFFFFFFFFFFF DUP3 GT ISZERO PUSH2 0xF25 JUMPI PUSH2 0xF24 PUSH2 0xE0F JUMP JUMPDEST JUMPDEST PUSH1 0x20 DUP3 MUL SWAP1 POP SWAP2 SWAP1 POP JUMP JUMPDEST PUSH0 DUP1 REVERT JUMPDEST PUSH0 PUSH2 0xF46 PUSH2 0xF41 DUP5 PUSH2 0xF0B JUMP JUMPDEST PUSH2 0xE6D JUMP JUMPDEST SWAP1 POP DUP1 PUSH1 0x20 DUP5 MUL DUP4 ADD DUP6 DUP2 GT ISZERO PUSH2 0xF60 JUMPI PUSH2 0xF5F PUSH2 0xF30 JUMP JUMPDEST JUMPDEST DUP4 JUMPDEST DUP2 DUP2 LT ISZERO PUSH2 0xF89 JUMPI DUP1 PUSH2 0xF75 DUP9 DUP3 PUSH2 0xEA6 JUMP JUMPDEST DUP5 MSTORE PUSH1 0x20 DUP5 ADD SWAP4 POP POP PUSH1 0x20 DUP2 ADD SWAP1 POP PUSH2 0xF62 JUMP JUMPDEST POP POP POP SWAP4 SWAP3 POP POP POP JUMP JUMPDEST PUSH0 DUP3 PUSH1 0x1F DUP4 ADD SLT PUSH2 0xFA7 JUMPI PUSH2 0xFA6 PUSH2 0xF07 JUMP JUMPDEST JUMPDEST PUSH1 0x2 PUSH2 0xFB4 DUP5 DUP3 DUP6 PUSH2 0xF34 JUMP JUMPDEST SWAP2 POP POP SWAP3 SWAP2 POP POP JUMP JUMPDEST PUSH0 PUSH1 0x80 DUP3 DUP5 SUB SLT ISZERO PUSH2 0xFD2 JUMPI PUSH2 0xFD1 PUSH2 0xDFB JUMP JUMPDEST JUMPDEST PUSH2 0xFDC PUSH1 0x40 PUSH2 0xE6D JUMP JUMPDEST SWAP1 POP PUSH0 PUSH2 0xFEB DUP5 DUP3 DUP6 ADD PUSH2 0xF93 JUMP JUMPDEST PUSH0 DUP4 ADD MSTORE POP PUSH1 0x40 PUSH2 0xFFE DUP5 DUP3 DUP6 ADD PUSH2 0xF93 JUMP JUMPDEST PUSH1 0x20 DUP4 ADD MSTORE POP SWAP3 SWAP2 POP POP JUMP JUMPDEST PUSH0 PUSH2 0x100 DUP3 DUP5 SUB SLT ISZERO PUSH2 0x1020 JUMPI PUSH2 0x101F PUSH2 0xDFB JUMP JUMPDEST JUMPDEST PUSH2 0x102A PUSH1 0x60 PUSH2 0xE6D JUMP JUMPDEST SWAP1 POP PUSH0 PUSH2 0x1039 DUP5 DUP3 DUP6 ADD PUSH2 0xEBA JUMP JUMPDEST PUSH0 DUP4 ADD MSTORE POP PUSH1 0x40 PUSH2 0x104C DUP5 DUP3 DUP6 ADD PUSH2 0xFBD JUMP JUMPDEST PUSH1 0x20 DUP4 ADD MSTORE POP PUSH1 0xC0 PUSH2 0x1060 DUP5 DUP3 DUP6 ADD PUSH2 0xEBA JUMP JUMPDEST PUSH1 0x40 DUP4 ADD MSTORE POP SWAP3 SWAP2 POP POP JUMP JUMPDEST PUSH0 PUSH2 0x100 DUP3 DUP5 SUB SLT ISZERO PUSH2 0x1082 JUMPI PUSH2 0x1081 PUSH2 0xDF7 JUMP JUMPDEST JUMPDEST PUSH0 PUSH2 0x108F DUP5 DUP3 DUP6 ADD PUSH2 0x100A JUMP JUMPDEST SWAP2 POP POP SWAP3 SWAP2 POP POP JUMP JUMPDEST PUSH0 DUP2 ISZERO ISZERO SWAP1 POP SWAP2 SWAP1 POP JUMP JUMPDEST PUSH2 0x10AC DUP2 PUSH2 0x1098 JUMP JUMPDEST DUP3 MSTORE POP POP JUMP JUMPDEST PUSH0 PUSH1 0x20 DUP3 ADD SWAP1 POP PUSH2 0x10C5 PUSH0 DUP4 ADD DUP5 PUSH2 0x10A3 JUMP JUMPDEST SWAP3 SWAP2 POP POP JUMP JUMPDEST PUSH32 0x4E487B7100000000000000000000000000000000000000000000000000000000 PUSH0 MSTORE PUSH1 0x11 PUSH1 0x4 MSTORE PUSH1 0x24 PUSH0 REVERT JUMPDEST PUSH0 PUSH2 0x1102 DUP3 PUSH2 0xE87 JUMP JUMPDEST SWAP2 POP PUSH2 0x110D DUP4 PUSH2 0xE87 JUMP JUMPDEST SWAP3 POP DUP3 DUP3 ADD SWAP1 POP DUP1 DUP3 GT ISZERO PUSH2 0x1125 JUMPI PUSH2 0x1124 PUSH2 0x10CB JUMP JUMPDEST JUMPDEST SWAP3 SWAP2 POP POP JUMP JUMPDEST PUSH32 0x4E487B7100000000000000000000000000000000000000000000000000000000 PUSH0 MSTORE PUSH1 0x32 PUSH1 0x4 MSTORE PUSH1 0x24 PUSH0 REVERT JUMPDEST PUSH32 0x4E487B7100000000000000000000000000000000000000000000000000000000 PUSH0 MSTORE PUSH1 0x12 PUSH1 0x4 MSTORE PUSH1 0x24 PUSH0 REVERT JUMPDEST PUSH0 PUSH2 0x118F DUP3 PUSH2 0xE87 JUMP JUMPDEST SWAP2 POP PUSH2 0x119A DUP4 PUSH2 0xE87 JUMP JUMPDEST SWAP3 POP DUP3 PUSH2 0x11AA JUMPI PUSH2 0x11A9 PUSH2 0x1158 JUMP JUMPDEST JUMPDEST DUP3 DUP3 MOD SWAP1 POP SWAP3 SWAP2 POP POP JUMP JUMPDEST PUSH0 PUSH2 0x11BF DUP3 PUSH2 0xE87 JUMP JUMPDEST SWAP2 POP PUSH2 0x11CA DUP4 PUSH2 0xE87 JUMP JUMPDEST SWAP3 POP DUP3 DUP3 SUB SWAP1 POP DUP2 DUP2 GT ISZERO PUSH2 0x11E2 JUMPI PUSH2 0x11E1 PUSH2 0x10CB JUMP JUMPDEST JUMPDEST SWAP3 SWAP2 POP POP JUMP JUMPDEST PUSH0 PUSH2 0x11F2 DUP3 PUSH2 0xE87 JUMP JUMPDEST SWAP2 POP PUSH2 0x11FD DUP4 PUSH2 0xE87 JUMP JUMPDEST SWAP3 POP DUP3 DUP3 MUL PUSH2 0x120B DUP2 PUSH2 0xE87 JUMP JUMPDEST SWAP2 POP DUP3 DUP3 DIV DUP5 EQ DUP4 ISZERO OR PUSH2 0x1222 JUMPI PUSH2 0x1221 PUSH2 0x10CB JUMP JUMPDEST JUMPDEST POP SWAP3 SWAP2 POP POP JUMP INVALID LOG2 PUSH5 0x6970667358 0x22 SLT KECCAK256 0xB3 0xBF SWAP7 SIGNEXTEND PUSH4 0xA3CED8EA SGT 0xD2 ORIGIN LOG2 0xE0 SWAP16 MULMOD 0xD6 PUSH1 0xE3 SWAP4 NOT 0xBF 0xBE 0xA8 0xD6 PUSH13 0x1E5B0DAC6F6064736F6C634300 ADDMOD XOR STOP CALLER "
		},
		"gasEstimates": {
			"creation": {
				"codeDepositCost": "940600",
				"executionCost": "973",
				"totalCost": "941573"
			},
			"external": {
				"verifyTx(((uint256,uint256),(uint256[2],uint256[2]),(uint256,uint256)))": "infinite"
			},
			"internal": {
				"verify(uint256[] memory,struct Verifier.Proof memory)": "infinite",
				"verifyingKey()": "infinite"
			}
		},
		"methodIdentifiers": {
			"verifyTx(((uint256,uint256),(uint256[2],uint256[2]),(uint256,uint256)))": "f6af0311"
		}
	},
	"abi": [
		{
			"inputs": [
				{
					"components": [
						{
							"components": [
								{
									"internalType": "uint256",
									"name": "X",
									"type": "uint256"
								},
								{
									"internalType": "uint256",
									"name": "Y",
									"type": "uint256"
								}
							],
							"internalType": "struct Pairing.G1Point",
							"name": "a",
							"type": "tuple"
						},
						{
							"components": [
								{
									"internalType": "uint256[2]",
									"name": "X",
									"type": "uint256[2]"
								},
								{
									"internalType": "uint256[2]",
									"name": "Y",
									"type": "uint256[2]"
								}
							],
							"internalType": "struct Pairing.G2Point",
							"name": "b",
							"type": "tuple"
						},
						{
							"components": [
								{
									"internalType": "uint256",
									"name": "X",
									"type": "uint256"
								},
								{
									"internalType": "uint256",
									"name": "Y",
									"type": "uint256"
								}
							],
							"internalType": "struct Pairing.G1Point",
							"name": "c",
							"type": "tuple"
						}
					],
					"internalType": "struct Verifier.Proof",
					"name": "proof",
					"type": "tuple"
				}
			],
			"name": "verifyTx",
			"outputs": [
				{
					"internalType": "bool",
					"name": "r",
					"type": "bool"
				}
			],
			"stateMutability": "view",
			"type": "function"
		}
	]
}